:1000000012C0189518951895189518951895189563
:100010001895189518951895189518951895189578
:100020001895189518958FE58DBFC8E3E0E24E2E20
:1000300084E08EBFD4E0F4E05F2EA89584B7082E4C
:10004000877F84BF88E1992781BD91BDEEEFF3E002
:10005000A0E6B0E088278D933197E9F70E9424014C
:10006000662474B7777F74BF8EE181BD86E081BD61
:100070008FEF87BB80E084BBB99ABA9A81EF8FBDBE
:1000800081E08EBDBB9A81E685BD80E090E09093D3
:100090004B0080934A0080E090E090934900809369
:1000A000480070E073BD81E08093600000916000C3
:1000B0000F3F10F009F00DC083B5839583BD82E337
:1000C00090E022D1A0E6B0E08C918F5F8C9308F491
:1000D000EDCF98D081E080936000009160000F3FE9
:1000E00010F009F00FC0AAE4B0E0A0D0A3E6B0E0A1
:1000F0008D919C9109D1A0E6B0E08C918F5F8C939B
:1001000008F4EBCF7FD081E0809360000091600025
:100110000F3F10F009F00FC083B58A9583BDA3E6A9
:10012000B0E08D919C91F0D0A0E6B0E08C918F5F13
:100130008C9308F4EBCF66D081E08093600000914F
:1001400060000F3F10F009F00FC0A8E4B0E06ED0DF
:10015000A3E6B0E08D919C91D7D0A0E6B0E08C9161
:100160008F5F8C9308F4EBCF4DD081E080936000DB
:10017000009160000F3F10F009F00FC0AAE4B0E05A
:100180005CD0A3E6B0E08D919C91BED0A0E6B0E03B
:100190008C918F5F8C9308F4EBCF34D081E0809307
:1001A0006000009160000F3F10F009F00FC083B5B0
:1001B000839583BDA3E6B0E08D919C91A5D0A0E688
:1001C000B0E08C918F5F8C9308F4EBCF1BD081E073
:1001D00080936000009160000F3F10F009F00FC0A5
:1001E000A8E4B0E02AD0A3E6B0E08D919C918CD039
:1001F000A0E6B0E08C918F5F8C9308F4EBCF69CFD1
:10020000F894FFCF82EC91E08A939A9324D0A3E6EE
:10021000B0E00D931C93A3E6B0E00D911C91065045
:100220001F4FA3E6B0E00D931C930895ED91FC9150
:10023000EF5FFF4FFC93EE930895ED91FC91E15039
:10024000F040FC93EE93089515E000E00093650004
:1002500010936600089540916500509166000DEF7F
:1002600013E461D00D5311460093650010936600AE
:100270005991499126D0089508D055D000FC10D04E
:10028000089503D01ED001F8F9CF0024E89457FF59
:1002900002C009D0689400F80BD010F8012408952A
:1002A00002D009D00895509540954F5F5F4F089553
:1002B000E89417FF0895009510950F5F1F4F6894FD
:1002C0000895352F242FE894452B11F46894089550
:1002D000512F402F0027112780E1440F551F001F89
:1002E000111F021B130B416018F4020F131F4E7FE6
:1002F0008A9599F708953197F1F70895689462F80F
:100300000895E89462F80895EF93FF93EE27E82BA1
:10031000E92B31F0EAEFF0E03197F1F70197D1F7EF
:10032000FF91EF9108950F92B801469F8001479F7A
:0A033000100D569F100D0F90089558
:00000001FF
