:1000000012C0189518951895189518951895189563
:100010001895189518951895189518951895189578
:100020001895189518958FE58DBFC8E3E0E24E2E20
:1000300084E08EBFD4E0F4E05F2EA89584B7082E4C
:10004000877F84BF88E1992781BD91BDEEEFF3E002
:10005000A0E6B0E088278D933197E9F70E94E2018E
:10006000662474B7777F74BF8EE181BD86E081BD61
:100070008FEF87BB80E084BBB99ABA9A81EA8FBDC3
:1000800081E08EBDBB9A81E785BDB99ABA9ABB9AC9
:100090008FEF90E090934B0080934A008FEF90E0B9
:1000A00090934900809348007FEF73BD81E0809377
:1000B0006000009160000F3F10F009F013C083B59D
:1000C0008A9583BD9B9904C085E090E0DBD103C095
:1000D0008FE090E0D7D1A0E6B0E08C918F5F8C9359
:1000E00008F4E7CF5DD09D9901C0A6C081E0809360
:1000F0006000009160000F3F10F009F012C0AAE408
:10010000B0E059D183B5839583BDA5E6B0E08D916C
:100110009C91B8D1A0E6B0E08C918F5F8C9308F4ED
:10012000E8CF3ED081E080936000009160000F3FF7
:1001300010F009F012C0A8E4B0E03DD1AAE4B0E0AC
:1001400033D1A5E6B0E08D919C919CD1A0E6B0E0C2
:100150008C918F5F8C9308F4E8CF22D081E080935C
:100160006000009160000F3F10F009F012C083B5ED
:100170008A9583BDA8E4B0E017D1A5E6B0E08D91E3
:100180009C9180D1A0E6B0E08C918F5F8C9308F4B5
:10019000E8CF06D09D9B01C0A6CF9D9901C04CC061
:1001A0009A9907C084EF91E0A3E6B0E08D939C9309
:1001B00006C088EC90E0A3E6B0E08D939C939B99F9
:1001C00007C085E090E0A5E6B0E08D939C9306C063
:1001D0008FE090E0A5E6B0E08D939C939C9906C0DB
:1001E00080E090E0A5E6B0E08D939C93A3E6B0E0BC
:1001F0008D919C918A939A93ECD0A7E6B0E00D93F1
:100200001C9381E090E0A1E6B0E08D939C93A7E67B
:10021000B0E04D915C91A1E6B0E00D911C91041706
:10022000150714F009F007C08AE090E02BD1A1E691
:10023000B0E0BAD0ECCF08958FEF90E090934B00F0
:1002400080934A008FEF90E090934900809348009C
:1002500070E073BD9D9B0FC08FEF90E090934B00BB
:1002600080934A008FEF90E090934900809348007C
:1002700070E073BD38CF81E0809360000091600032
:100280000F3F10F009F00FC0AAE4B0E094D0A5E64B
:10029000B0E08D919C91F6D0A0E6B0E08C918F5F9C
:1002A0008C9308F4EBCF7CDF81E0809360000091B9
:1002B00060000F3F10F009F00FC083B5839583BD38
:1002C000A5E6B0E08D919C91DDD0A0E6B0E08C91E8
:1002D0008F5F8C9308F4EBCF63DF81E08093600045
:1002E000009160000F3F10F009F00FC0A8E4B0E0EB
:1002F00062D0A5E6B0E08D919C91C4D0A0E6B0E0BC
:100300008C918F5F8C9308F4EBCF4ADF81E0809370
:100310006000009160000F3F10F009F00FC0AAE4E8
:10032000B0E042D0A5E6B0E08D919C91ABD0A0E6C4
:10033000B0E08C918F5F8C9308F4EBCF31DF81E0DC
:1003400080936000009160000F3F10F009F00FC033
:1003500083B58A9583BDA5E6B0E08D919C9192D03E
:10036000A0E6B0E08C918F5F8C9308F4EBCF18DFA0
:1003700081E080936000009160000F3F10F009F071
:100380000FC0A8E4B0E010D0A5E6B0E08D919C913C
:1003900079D0A0E6B0E08C918F5F8C9308F4EBCF1E
:1003A000FFDE58CFF894FFCFED91FC91EF5FFF4F48
:1003B000FC93EE930895ED91FC91E150F040FC9395
:1003C000EE93089515E000E00093690010936A0031
:1003D00008954091690050916A000DEF13E461D0D7
:1003E0000D5311460093690010936A005991499189
:1003F00026D0089508D055D000FC10D0089503D021
:100400001ED001F8F9CF0024E89457FF02C009D0AC
:10041000689400F80BD010F80124089502D009D098
:100420000895509540954F5F5F4F0895E89417FFEA
:100430000895009510950F5F1F4F68940895352F0C
:10044000242FE894452B11F468940895512F402FE0
:100450000027112780E1440F551F001F111F021BA9
:10046000130B416018F4020F131F4E7F8A9599F702
:1004700008953197F1F70895689462F80895E89423
:1004800062F80895EF93FF93EE27E82BE92B31F004
:10049000EAEFF0E03197F1F70197D1F7FF91EF9193
:1004A00008950F92B801469F8001479F100D569FF7
:0604B000100D0F900895ED
:00000001FF
